{
  "contractName": "BequeathContract",
  "abi": [
    {
      "inputs": [],
      "payable": false,
      "stateMutability": "nonpayable",
      "type": "constructor"
    },
    {
      "constant": false,
      "inputs": [
        {
          "name": "_beneficiary",
          "type": "address"
        },
        {
          "name": "_withdrawalDate",
          "type": "uint256"
        }
      ],
      "name": "bequeath",
      "outputs": [
        {
          "name": "success",
          "type": "bool"
        }
      ],
      "payable": true,
      "stateMutability": "payable",
      "type": "function"
    },
    {
      "constant": false,
      "inputs": [],
      "name": "claim",
      "outputs": [
        {
          "name": "success",
          "type": "bool"
        }
      ],
      "payable": true,
      "stateMutability": "payable",
      "type": "function"
    }
  ],
  "bytecode": "0x608060405234801561001057600080fd5b5060006002819055506105cc806100286000396000f30060806040526004361061004c576000357c0100000000000000000000000000000000000000000000000000000000900463ffffffff16806348272c1f146100515780634e71d92d146100a9575b600080fd5b61008f600480360381019080803573ffffffffffffffffffffffffffffffffffffffff169060200190929190803590602001909291905050506100cb565b604051808215151515815260200191505060405180910390f35b6100b1610346565b604051808215151515815260200191505060405180910390f35b60006100d5610568565b6000600160003373ffffffffffffffffffffffffffffffffffffffff1673ffffffffffffffffffffffffffffffffffffffff16815260200190815260200160002060000160009054906101000a900473ffffffffffffffffffffffffffffffffffffffff1673ffffffffffffffffffffffffffffffffffffffff161480156101d1575060008060008673ffffffffffffffffffffffffffffffffffffffff1673ffffffffffffffffffffffffffffffffffffffff16815260200190815260200160002060009054906101000a900473ffffffffffffffffffffffffffffffffffffffff1673ffffffffffffffffffffffffffffffffffffffff16145b15156101dc57600080fd5b336000808673ffffffffffffffffffffffffffffffffffffffff1673ffffffffffffffffffffffffffffffffffffffff16815260200190815260200160002060006101000a81548173ffffffffffffffffffffffffffffffffffffffff021916908373ffffffffffffffffffffffffffffffffffffffff1602179055506060604051908101604052808573ffffffffffffffffffffffffffffffffffffffff16815260200134815260200184815250905080600160003373ffffffffffffffffffffffffffffffffffffffff1673ffffffffffffffffffffffffffffffffffffffff16815260200190815260200160002060008201518160000160006101000a81548173ffffffffffffffffffffffffffffffffffffffff021916908373ffffffffffffffffffffffffffffffffffffffff160217905550602082015181600101556040820151816002015590505034600260008282540192505081905550600191505092915050565b60008060008060003373ffffffffffffffffffffffffffffffffffffffff1673ffffffffffffffffffffffffffffffffffffffff16815260200190815260200160002060009054906101000a900473ffffffffffffffffffffffffffffffffffffffff16915060008273ffffffffffffffffffffffffffffffffffffffff16141515156103d257600080fd5b600160008373ffffffffffffffffffffffffffffffffffffffff1673ffffffffffffffffffffffffffffffffffffffff16815260200190815260200160002090504281600201541115151561042657600080fd5b80600101546002600082825403925050819055503373ffffffffffffffffffffffffffffffffffffffff166108fc82600101549081150290604051600060405180830381858888f19350505050158015610484573d6000803e3d6000fd5b506000803373ffffffffffffffffffffffffffffffffffffffff1673ffffffffffffffffffffffffffffffffffffffff16815260200190815260200160002060006101000a81549073ffffffffffffffffffffffffffffffffffffffff0219169055600160008373ffffffffffffffffffffffffffffffffffffffff1673ffffffffffffffffffffffffffffffffffffffff168152602001908152602001600020600080820160006101000a81549073ffffffffffffffffffffffffffffffffffffffff021916905560018201600090556002820160009055505060019250505090565b606060405190810160405280600073ffffffffffffffffffffffffffffffffffffffff168152602001600081526020016000815250905600a165627a7a72305820dd96791d6b5516932d475f12102734cae9e185480eece9c269900a810709293e0029",
  "source": "pragma solidity ^0.4.21;\n\ncontract BequeathContract {\n struct Bequeathal {\n     address beneficiary;\n     uint amount;\n     uint withdrawalDate;\n }\n mapping (address => address) private BeneficiaryToDonor;\n mapping (address => Bequeathal) private DonorToBequeathal;\n uint256 balance;\n\n constructor() public{\n   balance = 0;\n }\n\n function bequeath(address _beneficiary, uint _withdrawalDate) public payable returns (bool success){\n    require(DonorToBequeathal[msg.sender].beneficiary == 0 && BeneficiaryToDonor[_beneficiary] == 0);\n    BeneficiaryToDonor[_beneficiary] = msg.sender;\n    Bequeathal memory newBequeathal = Bequeathal(_beneficiary, msg.value, _withdrawalDate);\n    DonorToBequeathal[msg.sender] = newBequeathal;\n    balance += msg.value;\n    return true;\n }\n\n function claim() public payable returns (bool success){\n     address _donor = BeneficiaryToDonor[msg.sender];\n     require(_donor != 0);\n     Bequeathal storage withdrawal = DonorToBequeathal[_donor];\n     require(withdrawal.withdrawalDate <= block.timestamp);\n     balance -= withdrawal.amount;\n     msg.sender.transfer(withdrawal.amount);\n     delete BeneficiaryToDonor[msg.sender];\n     delete DonorToBequeathal[_donor];\n     return true;\n }\n}\n",
  "sourcePath": "/Users/achon/Google Drive/Junior '17-'18/CS 359B/cs359b-bequeath/contracts/BequeathContract.sol",
  "compiler": {
    "name": "solc",
    "version": "0.4.23+commit.124ca40d.Emscripten.clang"
  },
  "schemaVersion": "2.0.0",
  "updatedAt": "2018-04-30T08:10:30.912Z"
}