{
  "contractName": "BequeathContract",
  "abi": [
    {
      "inputs": [],
      "payable": false,
      "stateMutability": "nonpayable",
      "type": "constructor"
    },
    {
      "constant": true,
      "inputs": [
        {
          "name": "id",
          "type": "uint256"
        }
      ],
      "name": "viewBequeathal",
      "outputs": [
        {
          "name": "",
          "type": "uint256"
        },
        {
          "name": "",
          "type": "uint256"
        },
        {
          "name": "",
          "type": "address[]"
        },
        {
          "name": "",
          "type": "uint256[]"
        },
        {
          "name": "",
          "type": "address"
        }
      ],
      "payable": false,
      "stateMutability": "view",
      "type": "function"
    },
    {
      "constant": true,
      "inputs": [
        {
          "name": "beneficiary",
          "type": "address"
        }
      ],
      "name": "viewMyIds",
      "outputs": [
        {
          "name": "ids",
          "type": "uint256[]"
        }
      ],
      "payable": false,
      "stateMutability": "view",
      "type": "function"
    },
    {
      "constant": true,
      "inputs": [
        {
          "name": "beneficiary",
          "type": "address"
        }
      ],
      "name": "viewMyBequeathals",
      "outputs": [
        {
          "components": [
            {
              "name": "tokenType",
              "type": "uint256"
            },
            {
              "name": "amount",
              "type": "uint256"
            },
            {
              "name": "beneficiaries",
              "type": "address[]"
            },
            {
              "name": "dates",
              "type": "uint256[]"
            },
            {
              "name": "contractAddress",
              "type": "address"
            }
          ],
          "name": "bequeathals",
          "type": "tuple[]"
        }
      ],
      "payable": false,
      "stateMutability": "view",
      "type": "function"
    },
    {
      "constant": false,
      "inputs": [
        {
          "name": "_type",
          "type": "uint256"
        },
        {
          "name": "_contractAddress",
          "type": "address"
        },
        {
          "name": "_beneficiaries",
          "type": "address[]"
        },
        {
          "name": "_dates",
          "type": "uint256[]"
        },
        {
          "name": "_tokenIds",
          "type": "uint256[]"
        }
      ],
      "name": "bequeath",
      "outputs": [
        {
          "name": "success",
          "type": "bool"
        }
      ],
      "payable": true,
      "stateMutability": "payable",
      "type": "function"
    },
    {
      "constant": false,
      "inputs": [],
      "name": "claim",
      "outputs": [
        {
          "name": "success",
          "type": "bool"
        }
      ],
      "payable": true,
      "stateMutability": "payable",
      "type": "function"
    }
  ],
  "bytecode": "0x608060405234801561001057600080fd5b5060006002819055506000600381905550611c89806100306000396000f30060806040526004361061006d576000357c0100000000000000000000000000000000000000000000000000000000900463ffffffff1680630806151814610072578063094d4a14146100af5780634e71d92d146100f05780635c07b3c41461010e578063698d4df91461014b575b600080fd5b34801561007e57600080fd5b50610099600480360361009491908101906114df565b61017b565b6040516100a691906119d2565b60405180910390f35b3480156100bb57600080fd5b506100d660048036036100d1919081019061155a565b6103af565b6040516100e7959493929190611a4c565b60405180910390f35b6100f86104f1565b6040516101059190611a16565b60405180910390f35b34801561011a57600080fd5b50610135600480360361013091908101906114df565b610945565b60405161014291906119f4565b60405180910390f35b610165600480360361016091908101906115ac565b6109dc565b6040516101729190611a16565b60405180910390f35b6060600080600160008573ffffffffffffffffffffffffffffffffffffffff1673ffffffffffffffffffffffffffffffffffffffff168152602001908152602001600020805490509150816040519080825280602002602001820160405280156101ff57816020015b6101ec611164565b8152602001906001900390816101e45790505b509250600090505b818110156103a55760008082815260200190815260200160002060a060405190810160405290816000820154815260200160018201548152602001600282018054806020026020016040519081016040528092919081815260200182805480156102c657602002820191906000526020600020905b8160009054906101000a900473ffffffffffffffffffffffffffffffffffffffff1673ffffffffffffffffffffffffffffffffffffffff168152602001906001019080831161027c575b505050505081526020016003820180548060200260200160405190810160405280929190818152602001828054801561031e57602002820191906000526020600020905b81548152602001906001019080831161030a575b505050505081526020016004820160009054906101000a900473ffffffffffffffffffffffffffffffffffffffff1673ffffffffffffffffffffffffffffffffffffffff1673ffffffffffffffffffffffffffffffffffffffff1681525050838281518110151561038b57fe5b906020019060200201819052508080600101915050610207565b8292505050919050565b60008060608060008060008088815260200190815260200160002090508060000154816001015482600201836003018460040160009054906101000a900473ffffffffffffffffffffffffffffffffffffffff168280548060200260200160405190810160405280929190818152602001828054801561048457602002820191906000526020600020905b8160009054906101000a900473ffffffffffffffffffffffffffffffffffffffff1673ffffffffffffffffffffffffffffffffffffffff168152602001906001019080831161043a575b50505050509250818054806020026020016040519081016040528092919081815260200182805480156104d657602002820191906000526020600020905b8154815260200190600101908083116104c2575b50505050509150955095509550955095505091939590929450565b600080600080600080600080600080600160003373ffffffffffffffffffffffffffffffffffffffff1673ffffffffffffffffffffffffffffffffffffffff1681526020019081526020016000209850600097505b888054905088101561093557888881548110151561056057fe5b906000526020600020015496506000808881526020019081526020016000209550600094505b85600201805490508510156109285785600201858154811015156105a657fe5b9060005260206000200160009054906101000a900473ffffffffffffffffffffffffffffffffffffffff16935085600301858154811015156105e457fe5b906000526020600020015492503373ffffffffffffffffffffffffffffffffffffffff168473ffffffffffffffffffffffffffffffffffffffff1614801561062c5750428311155b1561091b576001866000015414156106a25785600101546002600082825403925050819055503373ffffffffffffffffffffffffffffffffffffffff166108fc87600101549081150290604051600060405180830381858888f1935050505015801561069c573d6000803e3d6000fd5b50610850565b601486600001541415610789578560040160009054906101000a900473ffffffffffffffffffffffffffffffffffffffff1691508173ffffffffffffffffffffffffffffffffffffffff1663a9059cbb3388600101546040518363ffffffff167c01000000000000000000000000000000000000000000000000000000000281526004016107319291906119a9565b602060405180830381600087803b15801561074b57600080fd5b505af115801561075f573d6000803e3d6000fd5b505050506040513d601f19601f820116820180604052506107839190810190611531565b5061084f565b6102d18660000154141561084e578560040160009054906101000a900473ffffffffffffffffffffffffffffffffffffffff1690508073ffffffffffffffffffffffffffffffffffffffff1663b88d4fde303389600101546040518463ffffffff167c010000000000000000000000000000000000000000000000000000000002815260040161081b9392919061195f565b600060405180830381600087803b15801561083557600080fd5b505af1158015610849573d6000803e3d6000fd5b505050505b5b5b600160003373ffffffffffffffffffffffffffffffffffffffff1673ffffffffffffffffffffffffffffffffffffffff1681526020019081526020016000208881548110151561089c57fe5b906000526020600020016000905560008088815260200190815260200160002060008082016000905560018201600090556002820160006108dd91906111aa565b6003820160006108ed91906111cb565b6004820160006101000a81549073ffffffffffffffffffffffffffffffffffffffff02191690555050610928565b8480600101955050610586565b8780600101985050610546565b6001995050505050505050505090565b6060600160008373ffffffffffffffffffffffffffffffffffffffff1673ffffffffffffffffffffffffffffffffffffffff1681526020019081526020016000208054806020026020016040519081016040528092919081815260200182805480156109d057602002820191906000526020600020905b8154815260200190600101908083116109bc575b50505050509050919050565b60006109e66111ec565b60008060008060006001600360008282540192505081905550600160003373ffffffffffffffffffffffffffffffffffffffff1673ffffffffffffffffffffffffffffffffffffffff168152602001908152602001600020600354908060018154018082558091505090600182039060005260206000200160009091929091909150555060018c1415610b825760a0604051908101604052808d81526020013481526020018b81526020018a8152602001600073ffffffffffffffffffffffffffffffffffffffff16815250955085600080600354815260200190815260200160002060008201518160000155602082015181600101556040820151816002019080519060200190610af9929190611232565b506060820151816003019080519060200190610b169291906112bc565b5060808201518160040160006101000a81548173ffffffffffffffffffffffffffffffffffffffff021916908373ffffffffffffffffffffffffffffffffffffffff160217905550905050610b6d8a6003546110c3565b346002600082825401925050819055506110af565b60148c1415610df8578a94508473ffffffffffffffffffffffffffffffffffffffff1663dd62ed3e33306040518363ffffffff167c0100000000000000000000000000000000000000000000000000000000028152600401610be59291906118ff565b602060405180830381600087803b158015610bff57600080fd5b505af1158015610c13573d6000803e3d6000fd5b505050506040513d601f19601f82011682018060405250610c379190810190611583565b93508473ffffffffffffffffffffffffffffffffffffffff166323b872dd3330876040518463ffffffff167c0100000000000000000000000000000000000000000000000000000000028152600401610c9293929190611928565b602060405180830381600087803b158015610cac57600080fd5b505af1158015610cc0573d6000803e3d6000fd5b505050506040513d601f19601f82011682018060405250610ce49190810190611531565b96508615610dea5760a0604051908101604052808d81526020018581526020018b81526020018a81526020018c73ffffffffffffffffffffffffffffffffffffffff16815250955085600080600354815260200190815260200160002060008201518160000155602082015181600101556040820151816002019080519060200190610d71929190611232565b506060820151816003019080519060200190610d8e9291906112bc565b5060808201518160040160006101000a81548173ffffffffffffffffffffffffffffffffffffffff021916908373ffffffffffffffffffffffffffffffffffffffff160217905550905050610de58a6003546110c3565b610df3565b600096506110b4565b6110ae565b6102d18c14156110ad578a9250600091505b87518210156110ac578782815181101515610e2157fe5b9060200190602002015190503373ffffffffffffffffffffffffffffffffffffffff168373ffffffffffffffffffffffffffffffffffffffff1663081812fc836040518263ffffffff167c0100000000000000000000000000000000000000000000000000000000028152600401610e999190611a31565b602060405180830381600087803b158015610eb357600080fd5b505af1158015610ec7573d6000803e3d6000fd5b505050506040513d601f19601f82011682018060405250610eeb9190810190611508565b73ffffffffffffffffffffffffffffffffffffffff16141561108e578273ffffffffffffffffffffffffffffffffffffffff1663b88d4fde3330846040518463ffffffff167c0100000000000000000000000000000000000000000000000000000000028152600401610f609392919061195f565b600060405180830381600087803b158015610f7a57600080fd5b505af1158015610f8e573d6000803e3d6000fd5b5050505060a0604051908101604052808d81526020018281526020018b81526020018a81526020018c73ffffffffffffffffffffffffffffffffffffffff168152509550856000808460035401815260200190815260200160002060008201518160000155602082015181600101556040820151816002019080519060200190611019929190611232565b5060608201518160030190805190602001906110369291906112bc565b5060808201518160040160006101000a81548173ffffffffffffffffffffffffffffffffffffffff021916908373ffffffffffffffffffffffffffffffffffffffff16021790555090505061108d8a6003546110c3565b5b87516003600082825401925050819055508180600101925050610e0a565b5b5b5b600196505b50505050505095945050505050565b60008090505b825181101561115f576001600084838151811015156110e457fe5b9060200190602002015173ffffffffffffffffffffffffffffffffffffffff1673ffffffffffffffffffffffffffffffffffffffff16815260200190815260200160002082908060018154018082558091505090600182039060005260206000200160009091929091909150555080806001019150506110c9565b505050565b60a06040519081016040528060008152602001600081526020016060815260200160608152602001600073ffffffffffffffffffffffffffffffffffffffff1681525090565b50805460008255906000526020600020908101906111c89190611309565b50565b50805460008255906000526020600020908101906111e99190611309565b50565b60a06040519081016040528060008152602001600081526020016060815260200160608152602001600073ffffffffffffffffffffffffffffffffffffffff1681525090565b8280548282559060005260206000209081019282156112ab579160200282015b828111156112aa5782518260006101000a81548173ffffffffffffffffffffffffffffffffffffffff021916908373ffffffffffffffffffffffffffffffffffffffff16021790555091602001919060010190611252565b5b5090506112b8919061132e565b5090565b8280548282559060005260206000209081019282156112f8579160200282015b828111156112f75782518255916020019190600101906112dc565b5b5090506113059190611309565b5090565b61132b91905b8082111561132757600081600090555060010161130f565b5090565b90565b61136e91905b8082111561136a57600081816101000a81549073ffffffffffffffffffffffffffffffffffffffff021916905550600101611334565b5090565b90565b600061137d8235611c19565b905092915050565b60006113918251611c19565b905092915050565b600082601f83011215156113ac57600080fd5b81356113bf6113ba82611ada565b611aad565b915081818352602084019350602081019050838560208402820111156113e457600080fd5b60005b8381101561141457816113fa8882611371565b8452602084019350602083019250506001810190506113e7565b5050505092915050565b600082601f830112151561143157600080fd5b813561144461143f82611b02565b611aad565b9150818183526020840193506020810190508385602084028201111561146957600080fd5b60005b83811015611499578161147f88826114b7565b84526020840193506020830192505060018101905061146c565b5050505092915050565b60006114af8251611c39565b905092915050565b60006114c38235611c45565b905092915050565b60006114d78251611c45565b905092915050565b6000602082840312156114f157600080fd5b60006114ff84828501611371565b91505092915050565b60006020828403121561151a57600080fd5b600061152884828501611385565b91505092915050565b60006020828403121561154357600080fd5b6000611551848285016114a3565b91505092915050565b60006020828403121561156c57600080fd5b600061157a848285016114b7565b91505092915050565b60006020828403121561159557600080fd5b60006115a3848285016114cb565b91505092915050565b600080600080600060a086880312156115c457600080fd5b60006115d2888289016114b7565b95505060206115e388828901611371565b945050604086013567ffffffffffffffff81111561160057600080fd5b61160c88828901611399565b935050606086013567ffffffffffffffff81111561162957600080fd5b6116358882890161141e565b925050608086013567ffffffffffffffff81111561165257600080fd5b61165e8882890161141e565b9150509295509295909350565b61167481611be3565b82525050565b600061168582611b76565b80845260208401935061169783611b37565b60005b828110156116c9576116ad86835161166b565b6116b682611baf565b915060208601955060018101905061169a565b50849250505092915050565b60006116e082611b6b565b8084526020840193506116f283611b2a565b60005b828110156117245761170886835161166b565b61171182611ba2565b91506020860195506001810190506116f5565b50849250505092915050565b600061173b82611b81565b8084526020840193508360208202850161175485611b44565b60005b8481101561178d57838303885261176f838351611873565b925061177a82611bbc565b9150602088019750600181019050611757565b508196508694505050505092915050565b60006117a982611b97565b8084526020840193506117bb83611b5e565b60005b828110156117ed576117d18683516118f0565b6117da82611bd6565b91506020860195506001810190506117be565b50849250505092915050565b600061180482611b8c565b80845260208401935061181683611b51565b60005b828110156118485761182c8683516118f0565b61183582611bc9565b9150602086019550600181019050611819565b50849250505092915050565b61185d81611c03565b82525050565b6000808252602082019050919050565b600060a08301600083015161188b60008601826118f0565b50602083015161189e60208601826118f0565b50604083015184820360408601526118b682826116d5565b915050606083015184820360608601526118d082826117f9565b91505060808301516118e5608086018261166b565b508091505092915050565b6118f981611c0f565b82525050565b6000604082019050611914600083018561166b565b611921602083018461166b565b9392505050565b600060608201905061193d600083018661166b565b61194a602083018561166b565b61195760408301846118f0565b949350505050565b6000608082019050611974600083018661166b565b611981602083018561166b565b61198e60408301846118f0565b818103606083015261199f81611863565b9050949350505050565b60006040820190506119be600083018561166b565b6119cb60208301846118f0565b9392505050565b600060208201905081810360008301526119ec8184611730565b905092915050565b60006020820190508181036000830152611a0e818461179e565b905092915050565b6000602082019050611a2b6000830184611854565b92915050565b6000602082019050611a4660008301846118f0565b92915050565b600060a082019050611a6160008301886118f0565b611a6e60208301876118f0565b8181036040830152611a80818661167a565b90508181036060830152611a94818561179e565b9050611aa3608083018461166b565b9695505050505050565b6000604051905081810181811067ffffffffffffffff82111715611ad057600080fd5b8060405250919050565b600067ffffffffffffffff821115611af157600080fd5b602082029050602081019050919050565b600067ffffffffffffffff821115611b1957600080fd5b602082029050602081019050919050565b6000602082019050919050565b6000602082019050919050565b6000602082019050919050565b6000602082019050919050565b6000602082019050919050565b600081519050919050565b600081519050919050565b600081519050919050565b600081519050919050565b600081519050919050565b6000602082019050919050565b6000602082019050919050565b6000602082019050919050565b6000602082019050919050565b6000602082019050919050565b600073ffffffffffffffffffffffffffffffffffffffff82169050919050565b60008115159050919050565b6000819050919050565b600073ffffffffffffffffffffffffffffffffffffffff82169050919050565b60008115159050919050565b60008190509190505600a265627a7a72305820a72c34e072c59ca5e9ee7c4721992b4193779bb61438065dfae77e0d637baf5b6c6578706572696d656e74616cf50037",
  "source": "pragma experimental ABIEncoderV2; // Adds ability to pass structs as function arguments.\n\ncontract BequeathContract {\n struct Bequeathal {\n     uint tokenType; // 1 is ether, 20 is erc-20, and 721 is erc-721\n     uint amount; //number of ether, erc20, or erc721 token id\n     address[] beneficiaries;\n     uint[] dates;\n     address contractAddress;\n }\n\n /* mapping (address => address) private BeneficiaryToDonor; */\n mapping (uint => Bequeathal) internal IdToBequeathal;\n mapping (address => uint[]) internal BeneficiaryToIds;\n uint256 balance;\n uint256 current_id;\n constructor() public{\n   balance = 0;\n   current_id = 0;\n }\n\n function viewBequeathal(uint id) public view returns (uint, uint, address[], uint[], address){\n   Bequeathal storage b = IdToBequeathal[id];\n   return (b.tokenType, b.amount, b.beneficiaries, b.dates, b.contractAddress);\n }\n\n function viewMyIds(address beneficiary) public view returns (uint[] ids){\n   return BeneficiaryToIds[beneficiary];\n }\n\n function viewMyBequeathals(address beneficiary) public view returns (Bequeathal[] bequeathals){\n   uint len = BeneficiaryToIds[beneficiary].length;\n   bequeathals = new Bequeathal[](len);\n   for (uint i = 0; i < len; i++){\n     bequeathals[i] = IdToBequeathal[i];\n   }\n   return bequeathals;\n }\n\n function bequeath(uint _type, address _contractAddress, address[] _beneficiaries, uint[] _dates, uint256[] _tokenIds) public payable returns (bool success){\n    current_id += 1;\n    BeneficiaryToIds[msg.sender].push(current_id);\n    Bequeathal memory newBequeathal;\n    if (_type == 1) {\n      newBequeathal = Bequeathal(_type, msg.value, _beneficiaries, _dates, 0x0);\n      IdToBequeathal[current_id] = newBequeathal;\n      fillBeneficiaryToIds(_beneficiaries, current_id);\n      balance += msg.value;\n    } else if (_type == 20) {\n      //assume approved\n       ERC20Token erc20TokenContract = ERC20Token(_contractAddress);\n       uint amount = erc20TokenContract.allowance(msg.sender, address(this));\n       success = erc20TokenContract.transferFrom(msg.sender, address(this), amount);\n       if (success) {\n        newBequeathal = Bequeathal(_type, amount, _beneficiaries, _dates, _contractAddress);\n         IdToBequeathal[current_id]=newBequeathal;\n         fillBeneficiaryToIds(_beneficiaries, current_id);\n       } else {\n         return false;\n       }\n    } else if (_type == 721) {\n       ERC721Token erc721TokenContract = ERC721Token(_contractAddress);\n       for (uint i = 0; i < _tokenIds.length; i++) {\n          uint256 id = _tokenIds[i];\n          if (erc721TokenContract.getApproved(id)==msg.sender) {\n            erc721TokenContract.safeTransferFrom(msg.sender, address(this), id, \"\");\n            newBequeathal = Bequeathal(_type, id, _beneficiaries, _dates, _contractAddress);\n            IdToBequeathal[current_id+i]=newBequeathal;\n            fillBeneficiaryToIds(_beneficiaries, current_id);\n          }\n          current_id += _tokenIds.length;\n       }\n    }\n    return true;\n }\n\n function fillBeneficiaryToIds(address[] _beneficiaries, uint256 id) private {\n   for (uint i = 0; i < _beneficiaries.length; i++) {\n     BeneficiaryToIds[_beneficiaries[i]].push(id);\n   }\n }\n\n function claim() public payable returns (bool success){\n     uint[] storage ids = BeneficiaryToIds[msg.sender];\n     for (uint i = 0; i < ids.length; i++){\n       uint id = ids[i];\n       Bequeathal storage asset = IdToBequeathal[id];\n       for (uint b = 0; b < asset.beneficiaries.length; b++){\n         address beneficiary = asset.beneficiaries[b];\n         uint date = asset.dates[b];\n         if (beneficiary == msg.sender && date <= block.timestamp){\n           if (asset.tokenType == 1){\n             balance -= asset.amount;\n             msg.sender.transfer(asset.amount);\n           }else if (asset.tokenType == 20){\n             ERC20Token erc20 = ERC20Token(asset.contractAddress);\n             erc20.transfer(msg.sender, asset.amount);\n           }else if (asset.tokenType == 721){\n             ERC721Token erc721 = ERC721Token(asset.contractAddress);\n             erc721.safeTransferFrom(address(this), msg.sender, asset.amount, \"\");\n           }\n           delete BeneficiaryToIds[msg.sender][i];\n           delete IdToBequeathal[id];\n           break;\n         }\n       }\n     }\n     return true;\n }\n}\n\n\ncontract ERC20Token {\n    function totalSupply() public constant returns (uint);\n    function balanceOf(address tokenOwner) public constant returns (uint balance);\n    function allowance(address tokenOwner, address spender) public constant returns (uint remaining);\n    function transfer(address to, uint tokens) public returns (bool success);\n    function approve(address spender, uint tokens) public returns (bool success);\n    function transferFrom(address from, address to, uint tokens) public returns (bool success);\n\n    event Transfer(address indexed from, address indexed to, uint tokens);\n    event Approval(address indexed tokenOwner, address indexed spender, uint tokens);\n}\n\ncontract ERC721Token {\n    /// @dev This emits when ownership of any NFT changes by any mechanism.\n    ///  This event emits when NFTs are created (`from` == 0) and destroyed\n    ///  (`to` == 0). Exception: during contract creation, any number of NFTs\n    ///  may be created and assigned without emitting Transfer. At the time of\n    ///  any transfer, the approved address for that NFT (if any) is reset to none.\n    event Transfer(address indexed _from, address indexed _to, uint256 _tokenId);\n\n    /// @dev This emits when the approved address for an NFT is changed or\n    ///  reaffirmed. The zero address indicates there is no approved address.\n    ///  When a Transfer event emits, this also indicates that the approved\n    ///  address for that NFT (if any) is reset to none.\n    event Approval(address indexed _owner, address indexed _approved, uint256 _tokenId);\n\n    /// @dev This emits when an operator is enabled or disabled for an owner.\n    ///  The operator can manage all NFTs of the owner.\n    event ApprovalForAll(address indexed _owner, address indexed _operator, bool _approved);\n\n    /// @notice Count all NFTs assigned to an owner\n    /// @dev NFTs assigned to the zero address are considered invalid, and this\n    ///  function throws for queries about the zero address.\n    /// @param _owner An address for whom to query the balance\n    /// @return The number of NFTs owned by `_owner`, possibly zero\n    function balanceOf(address _owner) external view returns (uint256);\n\n    /// @notice Find the owner of an NFT\n    /// @param _tokenId The identifier for an NFT\n    /// @dev NFTs assigned to zero address are considered invalid, and queries\n    ///  about them do throw.\n    /// @return The address of the owner of the NFT\n    function ownerOf(uint256 _tokenId) external view returns (address);\n\n    /// @notice Transfers the ownership of an NFT from one address to another address\n    /// @dev Throws unless `msg.sender` is the current owner, an authorized\n    ///  operator, or the approved address for this NFT. Throws if `_from` is\n    ///  not the current owner. Throws if `_to` is the zero address. Throws if\n    ///  `_tokenId` is not a valid NFT. When transfer is complete, this function\n    ///  checks if `_to` is a smart contract (code size > 0). If so, it calls\n    ///  `onERC721Received` on `_to` and throws if the return value is not\n    ///  `bytes4(keccak256(\"onERC721Received(address,uint256,bytes)\"))`.\n    /// @param _from The current owner of the NFT\n    /// @param _to The new owner\n    /// @param _tokenId The NFT to transfer\n    /// @param data Additional data with no specified format, sent in call to `_to`\n    function safeTransferFrom(address _from, address _to, uint256 _tokenId, bytes data) external payable;\n\n    /// @notice Transfers the ownership of an NFT from one address to another address\n    /// @dev This works identically to the other function with an extra data parameter,\n    ///  except this function just sets data to \"\"\n    /// @param _from The current owner of the NFT\n    /// @param _to The new owner\n    /// @param _tokenId The NFT to transfer\n    function safeTransferFrom(address _from, address _to, uint256 _tokenId) external payable;\n\n    /// @notice Transfer ownership of an NFT -- THE CALLER IS RESPONSIBLE\n    ///  TO CONFIRM THAT `_to` IS CAPABLE OF RECEIVING NFTS OR ELSE\n    ///  THEY MAY BE PERMANENTLY LOST\n    /// @dev Throws unless `msg.sender` is the current owner, an authorized\n    ///  operator, or the approved address for this NFT. Throws if `_from` is\n    ///  not the current owner. Throws if `_to` is the zero address. Throws if\n    ///  `_tokenId` is not a valid NFT.\n    /// @param _from The current owner of the NFT\n    /// @param _to The new owner\n    /// @param _tokenId The NFT to transfer\n    function transferFrom(address _from, address _to, uint256 _tokenId) external payable;\n\n    /// @notice Set or reaffirm the approved address for an NFT\n    /// @dev The zero address indicates there is no approved address.\n    /// @dev Throws unless `msg.sender` is the current NFT owner, or an authorized\n    ///  operator of the current owner.\n    /// @param _approved The new approved NFT controller\n    /// @param _tokenId The NFT to approve\n    function approve(address _approved, uint256 _tokenId) external payable;\n\n    /// @notice Enable or disable approval for a third party (\"operator\") to manage\n    ///  all of `msg.sender`'s assets.\n    /// @dev Emits the ApprovalForAll event\n    /// @param _operator Address to add to the set of authorized operators.\n    /// @param _approved True if the operators is approved, false to revoke approval\n    function setApprovalForAll(address _operator, bool _approved) external;\n\n    /// @notice Get the approved address for a single NFT\n    /// @dev Throws if `_tokenId` is not a valid NFT\n    /// @param _tokenId The NFT to find the approved address for\n    /// @return The approved address for this NFT, or the zero address if there is none\n    function getApproved(uint256 _tokenId) external view returns (address);\n\n    /// @notice Query if an address is an authorized operator for another address\n    /// @param _owner The address that owns the NFTs\n    /// @param _operator The address that acts on behalf of the owner\n    /// @return True if `_operator` is an approved operator for `_owner`, false otherwise\n    function isApprovedForAll(address _owner, address _operator) external view returns (bool);\n\n    /// @notice Query if a contract implements an interface\n    /// @param interfaceID The interface identifier, as specified in ERC-165\n    /// @dev Interface identification is specified in ERC-165. This function\n    ///  uses less than 30,000 gas.\n    /// @return `true` if the contract implements `interfaceID` and\n    ///  `interfaceID` is not 0xffffffff, `false` otherwise\n    function supportsInterface(bytes4 interfaceID) external view returns (bool);\n}\n",
  "sourcePath": "/Users/achon/Google Drive/Junior '17-'18/CS 359B/cs359b-bequeath/contracts/BequeathContract.sol",
  "compiler": {
    "name": "solc",
    "version": "0.4.24+commit.e67f0147.Emscripten.clang"
  },
  "schemaVersion": "2.0.0",
  "updatedAt": "2018-06-03T12:57:29.176Z"
}