{
  "contractName": "BequeathContract",
  "abi": [
    {
      "inputs": [],
      "payable": false,
      "stateMutability": "nonpayable",
      "type": "constructor"
    },
    {
      "constant": true,
      "inputs": [
        {
          "name": "id",
          "type": "uint256"
        }
      ],
      "name": "viewBequeathal",
      "outputs": [
        {
          "name": "",
          "type": "uint256"
        },
        {
          "name": "",
          "type": "uint256"
        },
        {
          "name": "",
          "type": "address[]"
        },
        {
          "name": "",
          "type": "uint256[]"
        },
        {
          "name": "",
          "type": "address"
        }
      ],
      "payable": false,
      "stateMutability": "view",
      "type": "function"
    },
    {
      "constant": true,
      "inputs": [
        {
          "name": "beneficiary",
          "type": "address"
        }
      ],
      "name": "viewMyIds",
      "outputs": [
        {
          "name": "ids",
          "type": "uint256[]"
        }
      ],
      "payable": false,
      "stateMutability": "view",
      "type": "function"
    },
    {
      "constant": true,
      "inputs": [
        {
          "name": "beneficiary",
          "type": "address"
        }
      ],
      "name": "viewMyBequeathals",
      "outputs": [
        {
          "components": [
            {
              "name": "tokenType",
              "type": "uint256"
            },
            {
              "name": "amount",
              "type": "uint256"
            },
            {
              "name": "beneficiaries",
              "type": "address[]"
            },
            {
              "name": "dates",
              "type": "uint256[]"
            },
            {
              "name": "contractAddress",
              "type": "address"
            }
          ],
          "name": "bequeathals",
          "type": "tuple[]"
        }
      ],
      "payable": false,
      "stateMutability": "view",
      "type": "function"
    },
    {
      "constant": false,
      "inputs": [
        {
          "name": "_type",
          "type": "uint256"
        },
        {
          "name": "_contractAddress",
          "type": "address"
        },
        {
          "name": "_beneficiaries",
          "type": "address[]"
        },
        {
          "name": "_dates",
          "type": "uint256[]"
        },
        {
          "name": "_tokenIds",
          "type": "uint256[]"
        }
      ],
      "name": "bequeath",
      "outputs": [
        {
          "name": "success",
          "type": "bool"
        }
      ],
      "payable": true,
      "stateMutability": "payable",
      "type": "function"
    },
    {
      "constant": false,
      "inputs": [],
      "name": "claim",
      "outputs": [
        {
          "name": "success",
          "type": "bool"
        }
      ],
      "payable": true,
      "stateMutability": "payable",
      "type": "function"
    }
  ],
  "bytecode": "0x608060405234801561001057600080fd5b5060006002819055506000600381905550611c19806100306000396000f30060806040526004361061006d576000357c0100000000000000000000000000000000000000000000000000000000900463ffffffff1680630806151814610072578063094d4a14146100af5780634e71d92d146100f05780635c07b3c41461010e578063698d4df91461014b575b600080fd5b34801561007e57600080fd5b506100996004803603610094919081019061146f565b61017b565b6040516100a69190611962565b60405180910390f35b3480156100bb57600080fd5b506100d660048036036100d191908101906114ea565b6103af565b6040516100e79594939291906119dc565b60405180910390f35b6100f86104f1565b60405161010591906119a6565b60405180910390f35b34801561011a57600080fd5b506101356004803603610130919081019061146f565b610945565b6040516101429190611984565b60405180910390f35b6101656004803603610160919081019061153c565b6109dc565b60405161017291906119a6565b60405180910390f35b6060600080600160008573ffffffffffffffffffffffffffffffffffffffff1673ffffffffffffffffffffffffffffffffffffffff168152602001908152602001600020805490509150816040519080825280602002602001820160405280156101ff57816020015b6101ec6110f4565b8152602001906001900390816101e45790505b509250600090505b818110156103a55760008082815260200190815260200160002060a060405190810160405290816000820154815260200160018201548152602001600282018054806020026020016040519081016040528092919081815260200182805480156102c657602002820191906000526020600020905b8160009054906101000a900473ffffffffffffffffffffffffffffffffffffffff1673ffffffffffffffffffffffffffffffffffffffff168152602001906001019080831161027c575b505050505081526020016003820180548060200260200160405190810160405280929190818152602001828054801561031e57602002820191906000526020600020905b81548152602001906001019080831161030a575b505050505081526020016004820160009054906101000a900473ffffffffffffffffffffffffffffffffffffffff1673ffffffffffffffffffffffffffffffffffffffff1673ffffffffffffffffffffffffffffffffffffffff1681525050838281518110151561038b57fe5b906020019060200201819052508080600101915050610207565b8292505050919050565b60008060608060008060008088815260200190815260200160002090508060000154816001015482600201836003018460040160009054906101000a900473ffffffffffffffffffffffffffffffffffffffff168280548060200260200160405190810160405280929190818152602001828054801561048457602002820191906000526020600020905b8160009054906101000a900473ffffffffffffffffffffffffffffffffffffffff1673ffffffffffffffffffffffffffffffffffffffff168152602001906001019080831161043a575b50505050509250818054806020026020016040519081016040528092919081815260200182805480156104d657602002820191906000526020600020905b8154815260200190600101908083116104c2575b50505050509150955095509550955095505091939590929450565b600080600080600080600080600080600160003373ffffffffffffffffffffffffffffffffffffffff1673ffffffffffffffffffffffffffffffffffffffff1681526020019081526020016000209850600097505b888054905088101561093557888881548110151561056057fe5b906000526020600020015496506000808881526020019081526020016000209550600094505b85600201805490508510156109285785600201858154811015156105a657fe5b9060005260206000200160009054906101000a900473ffffffffffffffffffffffffffffffffffffffff16935085600301858154811015156105e457fe5b906000526020600020015492503373ffffffffffffffffffffffffffffffffffffffff168473ffffffffffffffffffffffffffffffffffffffff1614801561062c5750428311155b1561091b576001866000015414156106a25785600101546002600082825403925050819055503373ffffffffffffffffffffffffffffffffffffffff166108fc87600101549081150290604051600060405180830381858888f1935050505015801561069c573d6000803e3d6000fd5b50610850565b601486600001541415610789578560040160009054906101000a900473ffffffffffffffffffffffffffffffffffffffff1691508173ffffffffffffffffffffffffffffffffffffffff1663a9059cbb3388600101546040518363ffffffff167c0100000000000000000000000000000000000000000000000000000000028152600401610731929190611939565b602060405180830381600087803b15801561074b57600080fd5b505af115801561075f573d6000803e3d6000fd5b505050506040513d601f19601f8201168201806040525061078391908101906114c1565b5061084f565b6102d18660000154141561084e578560040160009054906101000a900473ffffffffffffffffffffffffffffffffffffffff1690508073ffffffffffffffffffffffffffffffffffffffff1663b88d4fde303389600101546040518463ffffffff167c010000000000000000000000000000000000000000000000000000000002815260040161081b939291906118ef565b600060405180830381600087803b15801561083557600080fd5b505af1158015610849573d6000803e3d6000fd5b505050505b5b5b600160003373ffffffffffffffffffffffffffffffffffffffff1673ffffffffffffffffffffffffffffffffffffffff1681526020019081526020016000208881548110151561089c57fe5b906000526020600020016000905560008088815260200190815260200160002060008082016000905560018201600090556002820160006108dd919061113a565b6003820160006108ed919061115b565b6004820160006101000a81549073ffffffffffffffffffffffffffffffffffffffff02191690555050610928565b8480600101955050610586565b8780600101985050610546565b6001995050505050505050505090565b6060600160008373ffffffffffffffffffffffffffffffffffffffff1673ffffffffffffffffffffffffffffffffffffffff1681526020019081526020016000208054806020026020016040519081016040528092919081815260200182805480156109d057602002820191906000526020600020905b8154815260200190600101908083116109bc575b50505050509050919050565b6000806109e761117c565b6000806000806000600160036000828254019250508190555060018d1480610a0f575060148d145b80610a1b57506102d18d145b15610abe57600096505b8a51871015610abd57600160008c89815181101515610a4057fe5b9060200190602002015173ffffffffffffffffffffffffffffffffffffffff1673ffffffffffffffffffffffffffffffffffffffff16815260200190815260200160002060035490806001815401808255809150509060018203906000526020600020016000909192909190915055508680600101975050610a25565b5b60018d1415610bca5760a0604051908101604052808e81526020013481526020018c81526020018b8152602001600073ffffffffffffffffffffffffffffffffffffffff16815250955085600080600354815260200190815260200160002060008201518160000155602082015181600101556040820151816002019080519060200190610b4d9291906111c2565b506060820151816003019080519060200190610b6a92919061124c565b5060808201518160040160006101000a81548173ffffffffffffffffffffffffffffffffffffffff021916908373ffffffffffffffffffffffffffffffffffffffff160217905550905050346002600082825401925050819055506110df565b60148d1415610e34578b94508473ffffffffffffffffffffffffffffffffffffffff1663dd62ed3e33306040518363ffffffff167c0100000000000000000000000000000000000000000000000000000000028152600401610c2d92919061188f565b602060405180830381600087803b158015610c4757600080fd5b505af1158015610c5b573d6000803e3d6000fd5b505050506040513d601f19601f82011682018060405250610c7f9190810190611513565b93508473ffffffffffffffffffffffffffffffffffffffff166323b872dd3330876040518463ffffffff167c0100000000000000000000000000000000000000000000000000000000028152600401610cda939291906118b8565b602060405180830381600087803b158015610cf457600080fd5b505af1158015610d08573d6000803e3d6000fd5b505050506040513d601f19601f82011682018060405250610d2c91908101906114c1565b97508715610e265760a0604051908101604052808e81526020018581526020018c81526020018b81526020018d73ffffffffffffffffffffffffffffffffffffffff16815250955085600080600354815260200190815260200160002060008201518160000155602082015181600101556040820151816002019080519060200190610db99291906111c2565b506060820151816003019080519060200190610dd692919061124c565b5060808201518160040160006101000a81548173ffffffffffffffffffffffffffffffffffffffff021916908373ffffffffffffffffffffffffffffffffffffffff160217905550905050610e2f565b600097506110e4565b6110de565b6102d18d14156110dd578b9250600091505b88518210156110dc578882815181101515610e5d57fe5b9060200190602002015190503373ffffffffffffffffffffffffffffffffffffffff168373ffffffffffffffffffffffffffffffffffffffff1663081812fc836040518263ffffffff167c0100000000000000000000000000000000000000000000000000000000028152600401610ed591906119c1565b602060405180830381600087803b158015610eef57600080fd5b505af1158015610f03573d6000803e3d6000fd5b505050506040513d601f19601f82011682018060405250610f279190810190611498565b73ffffffffffffffffffffffffffffffffffffffff1614156110be578273ffffffffffffffffffffffffffffffffffffffff1663b88d4fde3330846040518463ffffffff167c0100000000000000000000000000000000000000000000000000000000028152600401610f9c939291906118ef565b600060405180830381600087803b158015610fb657600080fd5b505af1158015610fca573d6000803e3d6000fd5b5050505060a0604051908101604052808e81526020018281526020018c81526020018b81526020018d73ffffffffffffffffffffffffffffffffffffffff1681525095508560008084600354018152602001908152602001600020600082015181600001556020820151816001015560408201518160020190805190602001906110559291906111c2565b50606082015181600301908051906020019061107292919061124c565b5060808201518160040160006101000a81548173ffffffffffffffffffffffffffffffffffffffff021916908373ffffffffffffffffffffffffffffffffffffffff1602179055509050505b88516003600082825401925050819055508180600101925050610e46565b5b5b5b600197505b5050505050505095945050505050565b60a06040519081016040528060008152602001600081526020016060815260200160608152602001600073ffffffffffffffffffffffffffffffffffffffff1681525090565b50805460008255906000526020600020908101906111589190611299565b50565b50805460008255906000526020600020908101906111799190611299565b50565b60a06040519081016040528060008152602001600081526020016060815260200160608152602001600073ffffffffffffffffffffffffffffffffffffffff1681525090565b82805482825590600052602060002090810192821561123b579160200282015b8281111561123a5782518260006101000a81548173ffffffffffffffffffffffffffffffffffffffff021916908373ffffffffffffffffffffffffffffffffffffffff160217905550916020019190600101906111e2565b5b50905061124891906112be565b5090565b828054828255906000526020600020908101928215611288579160200282015b8281111561128757825182559160200191906001019061126c565b5b5090506112959190611299565b5090565b6112bb91905b808211156112b757600081600090555060010161129f565b5090565b90565b6112fe91905b808211156112fa57600081816101000a81549073ffffffffffffffffffffffffffffffffffffffff0219169055506001016112c4565b5090565b90565b600061130d8235611ba9565b905092915050565b60006113218251611ba9565b905092915050565b600082601f830112151561133c57600080fd5b813561134f61134a82611a6a565b611a3d565b9150818183526020840193506020810190508385602084028201111561137457600080fd5b60005b838110156113a4578161138a8882611301565b845260208401935060208301925050600181019050611377565b5050505092915050565b600082601f83011215156113c157600080fd5b81356113d46113cf82611a92565b611a3d565b915081818352602084019350602081019050838560208402820111156113f957600080fd5b60005b83811015611429578161140f8882611447565b8452602084019350602083019250506001810190506113fc565b5050505092915050565b600061143f8251611bc9565b905092915050565b60006114538235611bd5565b905092915050565b60006114678251611bd5565b905092915050565b60006020828403121561148157600080fd5b600061148f84828501611301565b91505092915050565b6000602082840312156114aa57600080fd5b60006114b884828501611315565b91505092915050565b6000602082840312156114d357600080fd5b60006114e184828501611433565b91505092915050565b6000602082840312156114fc57600080fd5b600061150a84828501611447565b91505092915050565b60006020828403121561152557600080fd5b60006115338482850161145b565b91505092915050565b600080600080600060a0868803121561155457600080fd5b600061156288828901611447565b955050602061157388828901611301565b945050604086013567ffffffffffffffff81111561159057600080fd5b61159c88828901611329565b935050606086013567ffffffffffffffff8111156115b957600080fd5b6115c5888289016113ae565b925050608086013567ffffffffffffffff8111156115e257600080fd5b6115ee888289016113ae565b9150509295509295909350565b61160481611b73565b82525050565b600061161582611b06565b80845260208401935061162783611ac7565b60005b828110156116595761163d8683516115fb565b61164682611b3f565b915060208601955060018101905061162a565b50849250505092915050565b600061167082611afb565b80845260208401935061168283611aba565b60005b828110156116b4576116988683516115fb565b6116a182611b32565b9150602086019550600181019050611685565b50849250505092915050565b60006116cb82611b11565b808452602084019350836020820285016116e485611ad4565b60005b8481101561171d5783830388526116ff838351611803565b925061170a82611b4c565b91506020880197506001810190506116e7565b508196508694505050505092915050565b600061173982611b27565b80845260208401935061174b83611aee565b60005b8281101561177d57611761868351611880565b61176a82611b66565b915060208601955060018101905061174e565b50849250505092915050565b600061179482611b1c565b8084526020840193506117a683611ae1565b60005b828110156117d8576117bc868351611880565b6117c582611b59565b91506020860195506001810190506117a9565b50849250505092915050565b6117ed81611b93565b82525050565b6000808252602082019050919050565b600060a08301600083015161181b6000860182611880565b50602083015161182e6020860182611880565b50604083015184820360408601526118468282611665565b915050606083015184820360608601526118608282611789565b915050608083015161187560808601826115fb565b508091505092915050565b61188981611b9f565b82525050565b60006040820190506118a460008301856115fb565b6118b160208301846115fb565b9392505050565b60006060820190506118cd60008301866115fb565b6118da60208301856115fb565b6118e76040830184611880565b949350505050565b600060808201905061190460008301866115fb565b61191160208301856115fb565b61191e6040830184611880565b818103606083015261192f816117f3565b9050949350505050565b600060408201905061194e60008301856115fb565b61195b6020830184611880565b9392505050565b6000602082019050818103600083015261197c81846116c0565b905092915050565b6000602082019050818103600083015261199e818461172e565b905092915050565b60006020820190506119bb60008301846117e4565b92915050565b60006020820190506119d66000830184611880565b92915050565b600060a0820190506119f16000830188611880565b6119fe6020830187611880565b8181036040830152611a10818661160a565b90508181036060830152611a24818561172e565b9050611a3360808301846115fb565b9695505050505050565b6000604051905081810181811067ffffffffffffffff82111715611a6057600080fd5b8060405250919050565b600067ffffffffffffffff821115611a8157600080fd5b602082029050602081019050919050565b600067ffffffffffffffff821115611aa957600080fd5b602082029050602081019050919050565b6000602082019050919050565b6000602082019050919050565b6000602082019050919050565b6000602082019050919050565b6000602082019050919050565b600081519050919050565b600081519050919050565b600081519050919050565b600081519050919050565b600081519050919050565b6000602082019050919050565b6000602082019050919050565b6000602082019050919050565b6000602082019050919050565b6000602082019050919050565b600073ffffffffffffffffffffffffffffffffffffffff82169050919050565b60008115159050919050565b6000819050919050565b600073ffffffffffffffffffffffffffffffffffffffff82169050919050565b60008115159050919050565b60008190509190505600a265627a7a72305820481c282bd572370a88fc7bf4798e640a2bc1237968793d5bd5e779bf8bbc76cb6c6578706572696d656e74616cf50037",
  "source": "pragma experimental ABIEncoderV2; // Adds ability to pass structs as function arguments.\n\ncontract BequeathContract {\n struct Bequeathal {\n     uint tokenType; // 1 is ether, 20 is erc-20, and 721 is erc-721\n     uint amount; //number of ether, erc20, or erc721 token id\n     address[] beneficiaries;\n     uint[] dates;\n     address contractAddress;\n }\n\n /* mapping (address => address) private BeneficiaryToDonor; */\n mapping (uint => Bequeathal) internal IdToBequeathal;\n mapping (address => uint[]) internal BeneficiaryToIds;\n uint256 balance;\n uint256 current_id;\n constructor() public{\n   balance = 0;\n   current_id = 0;\n }\n\n function viewBequeathal(uint id) public view returns (uint, uint, address[], uint[], address){\n   Bequeathal storage b = IdToBequeathal[id];\n   return (b.tokenType, b.amount, b.beneficiaries, b.dates, b.contractAddress);\n }\n\n function viewMyIds(address beneficiary) public view returns (uint[] ids){\n   return BeneficiaryToIds[beneficiary];\n }\n\n function viewMyBequeathals(address beneficiary) public view returns (Bequeathal[] bequeathals){\n   uint len = BeneficiaryToIds[beneficiary].length;\n   bequeathals = new Bequeathal[](len);\n   for (uint i = 0; i < len; i++){\n     bequeathals[i] = IdToBequeathal[i];\n   }\n   return bequeathals;\n }\n\n function bequeath(uint _type, address _contractAddress, address[] _beneficiaries, uint[] _dates, uint256[] _tokenIds) public payable returns (bool success){\n    current_id += 1;\n    if (_type == 1 || _type == 20 || _type == 721){\n      for (uint j = 0; j < _beneficiaries.length; j++) {\n        BeneficiaryToIds[_beneficiaries[j]].push(current_id);\n      }\n    }\n    Bequeathal memory newBequeathal;\n    if (_type == 1) {\n      newBequeathal = Bequeathal(_type, msg.value, _beneficiaries, _dates, 0x0);\n      IdToBequeathal[current_id] = newBequeathal;\n      balance += msg.value;\n    } else if (_type == 20) {\n      //assume approved\n       ERC20Token erc20TokenContract = ERC20Token(_contractAddress);\n       uint amount = erc20TokenContract.allowance(msg.sender, address(this));\n       success = erc20TokenContract.transferFrom(msg.sender, address(this), amount);\n       if (success) {\n        newBequeathal = Bequeathal(_type, amount, _beneficiaries, _dates, _contractAddress);\n         IdToBequeathal[current_id]=newBequeathal;\n       } else {\n         return false;\n       }\n    } else if (_type == 721) {\n       ERC721Token erc721TokenContract = ERC721Token(_contractAddress);\n       for (uint i = 0; i < _tokenIds.length; i++) {\n          uint256 id = _tokenIds[i];\n          if (erc721TokenContract.getApproved(id)==msg.sender) {\n            erc721TokenContract.safeTransferFrom(msg.sender, address(this), id, \"\");\n            newBequeathal = Bequeathal(_type, id, _beneficiaries, _dates, _contractAddress);\n            IdToBequeathal[current_id+i]=newBequeathal;\n          }\n          current_id += _tokenIds.length;\n       }\n    }\n    return true;\n }\n\n function claim() public payable returns (bool success){\n     uint[] storage ids = BeneficiaryToIds[msg.sender];\n     for (uint i = 0; i < ids.length; i++){\n       uint id = ids[i];\n       Bequeathal storage asset = IdToBequeathal[id];\n       for (uint b = 0; b < asset.beneficiaries.length; b++){\n         address beneficiary = asset.beneficiaries[b];\n         uint date = asset.dates[b];\n         if (beneficiary == msg.sender && date <= block.timestamp){\n           if (asset.tokenType == 1){\n             balance -= asset.amount;\n             msg.sender.transfer(asset.amount);\n           }else if (asset.tokenType == 20){\n             ERC20Token erc20 = ERC20Token(asset.contractAddress);\n             erc20.transfer(msg.sender, asset.amount);\n           }else if (asset.tokenType == 721){\n             ERC721Token erc721 = ERC721Token(asset.contractAddress);\n             erc721.safeTransferFrom(address(this), msg.sender, asset.amount, \"\");\n           }\n           delete BeneficiaryToIds[msg.sender][i];\n           delete IdToBequeathal[id];\n           break;\n         }\n       }\n     }\n     return true;\n }\n}\n\n\ncontract ERC20Token {\n    function totalSupply() public constant returns (uint);\n    function balanceOf(address tokenOwner) public constant returns (uint balance);\n    function allowance(address tokenOwner, address spender) public constant returns (uint remaining);\n    function transfer(address to, uint tokens) public returns (bool success);\n    function approve(address spender, uint tokens) public returns (bool success);\n    function transferFrom(address from, address to, uint tokens) public returns (bool success);\n\n    event Transfer(address indexed from, address indexed to, uint tokens);\n    event Approval(address indexed tokenOwner, address indexed spender, uint tokens);\n}\n\ncontract ERC721Token {\n    /// @dev This emits when ownership of any NFT changes by any mechanism.\n    ///  This event emits when NFTs are created (`from` == 0) and destroyed\n    ///  (`to` == 0). Exception: during contract creation, any number of NFTs\n    ///  may be created and assigned without emitting Transfer. At the time of\n    ///  any transfer, the approved address for that NFT (if any) is reset to none.\n    event Transfer(address indexed _from, address indexed _to, uint256 _tokenId);\n\n    /// @dev This emits when the approved address for an NFT is changed or\n    ///  reaffirmed. The zero address indicates there is no approved address.\n    ///  When a Transfer event emits, this also indicates that the approved\n    ///  address for that NFT (if any) is reset to none.\n    event Approval(address indexed _owner, address indexed _approved, uint256 _tokenId);\n\n    /// @dev This emits when an operator is enabled or disabled for an owner.\n    ///  The operator can manage all NFTs of the owner.\n    event ApprovalForAll(address indexed _owner, address indexed _operator, bool _approved);\n\n    /// @notice Count all NFTs assigned to an owner\n    /// @dev NFTs assigned to the zero address are considered invalid, and this\n    ///  function throws for queries about the zero address.\n    /// @param _owner An address for whom to query the balance\n    /// @return The number of NFTs owned by `_owner`, possibly zero\n    function balanceOf(address _owner) external view returns (uint256);\n\n    /// @notice Find the owner of an NFT\n    /// @param _tokenId The identifier for an NFT\n    /// @dev NFTs assigned to zero address are considered invalid, and queries\n    ///  about them do throw.\n    /// @return The address of the owner of the NFT\n    function ownerOf(uint256 _tokenId) external view returns (address);\n\n    /// @notice Transfers the ownership of an NFT from one address to another address\n    /// @dev Throws unless `msg.sender` is the current owner, an authorized\n    ///  operator, or the approved address for this NFT. Throws if `_from` is\n    ///  not the current owner. Throws if `_to` is the zero address. Throws if\n    ///  `_tokenId` is not a valid NFT. When transfer is complete, this function\n    ///  checks if `_to` is a smart contract (code size > 0). If so, it calls\n    ///  `onERC721Received` on `_to` and throws if the return value is not\n    ///  `bytes4(keccak256(\"onERC721Received(address,uint256,bytes)\"))`.\n    /// @param _from The current owner of the NFT\n    /// @param _to The new owner\n    /// @param _tokenId The NFT to transfer\n    /// @param data Additional data with no specified format, sent in call to `_to`\n    function safeTransferFrom(address _from, address _to, uint256 _tokenId, bytes data) external payable;\n\n    /// @notice Transfers the ownership of an NFT from one address to another address\n    /// @dev This works identically to the other function with an extra data parameter,\n    ///  except this function just sets data to \"\"\n    /// @param _from The current owner of the NFT\n    /// @param _to The new owner\n    /// @param _tokenId The NFT to transfer\n    function safeTransferFrom(address _from, address _to, uint256 _tokenId) external payable;\n\n    /// @notice Transfer ownership of an NFT -- THE CALLER IS RESPONSIBLE\n    ///  TO CONFIRM THAT `_to` IS CAPABLE OF RECEIVING NFTS OR ELSE\n    ///  THEY MAY BE PERMANENTLY LOST\n    /// @dev Throws unless `msg.sender` is the current owner, an authorized\n    ///  operator, or the approved address for this NFT. Throws if `_from` is\n    ///  not the current owner. Throws if `_to` is the zero address. Throws if\n    ///  `_tokenId` is not a valid NFT.\n    /// @param _from The current owner of the NFT\n    /// @param _to The new owner\n    /// @param _tokenId The NFT to transfer\n    function transferFrom(address _from, address _to, uint256 _tokenId) external payable;\n\n    /// @notice Set or reaffirm the approved address for an NFT\n    /// @dev The zero address indicates there is no approved address.\n    /// @dev Throws unless `msg.sender` is the current NFT owner, or an authorized\n    ///  operator of the current owner.\n    /// @param _approved The new approved NFT controller\n    /// @param _tokenId The NFT to approve\n    function approve(address _approved, uint256 _tokenId) external payable;\n\n    /// @notice Enable or disable approval for a third party (\"operator\") to manage\n    ///  all of `msg.sender`'s assets.\n    /// @dev Emits the ApprovalForAll event\n    /// @param _operator Address to add to the set of authorized operators.\n    /// @param _approved True if the operators is approved, false to revoke approval\n    function setApprovalForAll(address _operator, bool _approved) external;\n\n    /// @notice Get the approved address for a single NFT\n    /// @dev Throws if `_tokenId` is not a valid NFT\n    /// @param _tokenId The NFT to find the approved address for\n    /// @return The approved address for this NFT, or the zero address if there is none\n    function getApproved(uint256 _tokenId) external view returns (address);\n\n    /// @notice Query if an address is an authorized operator for another address\n    /// @param _owner The address that owns the NFTs\n    /// @param _operator The address that acts on behalf of the owner\n    /// @return True if `_operator` is an approved operator for `_owner`, false otherwise\n    function isApprovedForAll(address _owner, address _operator) external view returns (bool);\n\n    /// @notice Query if a contract implements an interface\n    /// @param interfaceID The interface identifier, as specified in ERC-165\n    /// @dev Interface identification is specified in ERC-165. This function\n    ///  uses less than 30,000 gas.\n    /// @return `true` if the contract implements `interfaceID` and\n    ///  `interfaceID` is not 0xffffffff, `false` otherwise\n    function supportsInterface(bytes4 interfaceID) external view returns (bool);\n}\n",
  "sourcePath": "/Users/achon/Google Drive/Junior '17-'18/CS 359B/cs359b-bequeath/contracts/BequeathContract.sol",
  "compiler": {
    "name": "solc",
    "version": "0.4.24+commit.e67f0147.Emscripten.clang"
  },
  "schemaVersion": "2.0.0",
  "updatedAt": "2018-06-06T06:06:00.065Z"
}