{
  "contractName": "BequeathContract",
  "abi": [
    {
      "constant": false,
      "inputs": [
        {
          "name": "_type",
          "type": "uint256"
        },
        {
          "name": "_contractAddress",
          "type": "address"
        },
        {
          "name": "_beneficiaries",
          "type": "address[]"
        },
        {
          "name": "_dates",
          "type": "uint256[]"
        },
        {
          "name": "_tokenIds",
          "type": "uint256[]"
        }
      ],
      "name": "bequeath",
      "outputs": [
        {
          "name": "success",
          "type": "bool"
        }
      ],
      "payable": true,
      "stateMutability": "payable",
      "type": "function"
    },
    {
      "constant": false,
      "inputs": [],
      "name": "claim",
      "outputs": [
        {
          "name": "success",
          "type": "bool"
        }
      ],
      "payable": true,
      "stateMutability": "payable",
      "type": "function"
    },
    {
      "constant": false,
      "inputs": [
        {
          "name": "id",
          "type": "uint256"
        }
      ],
      "name": "claimId",
      "outputs": [
        {
          "name": "success",
          "type": "bool"
        }
      ],
      "payable": true,
      "stateMutability": "payable",
      "type": "function"
    },
    {
      "inputs": [],
      "payable": false,
      "stateMutability": "nonpayable",
      "type": "constructor"
    },
    {
      "constant": true,
      "inputs": [
        {
          "name": "id",
          "type": "uint256"
        }
      ],
      "name": "viewBequeathal",
      "outputs": [
        {
          "name": "",
          "type": "uint256"
        },
        {
          "name": "",
          "type": "uint256"
        },
        {
          "name": "",
          "type": "address[]"
        },
        {
          "name": "",
          "type": "uint256[]"
        },
        {
          "name": "",
          "type": "address"
        }
      ],
      "payable": false,
      "stateMutability": "view",
      "type": "function"
    },
    {
      "constant": true,
      "inputs": [
        {
          "name": "beneficiary",
          "type": "address"
        }
      ],
      "name": "viewMyBequeathals",
      "outputs": [
        {
          "components": [
            {
              "name": "tokenType",
              "type": "uint256"
            },
            {
              "name": "amount",
              "type": "uint256"
            },
            {
              "name": "beneficiaries",
              "type": "address[]"
            },
            {
              "name": "dates",
              "type": "uint256[]"
            },
            {
              "name": "contractAddress",
              "type": "address"
            }
          ],
          "name": "bequeathals",
          "type": "tuple[]"
        }
      ],
      "payable": false,
      "stateMutability": "view",
      "type": "function"
    },
    {
      "constant": true,
      "inputs": [
        {
          "name": "beneficiary",
          "type": "address"
        }
      ],
      "name": "viewMyIds",
      "outputs": [
        {
          "name": "ids",
          "type": "uint256[]"
        }
      ],
      "payable": false,
      "stateMutability": "view",
      "type": "function"
    }
  ],
  "bytecode": "0x608060405234801561001057600080fd5b506000600281905550600060038190555061215b806100306000396000f300608060405260043610610078576000357c0100000000000000000000000000000000000000000000000000000000900463ffffffff168063080615181461007d578063094d4a14146100ba5780634e71d92d146100fb5780635c07b3c414610119578063698d4df914610156578063a43d80d214610186575b600080fd5b34801561008957600080fd5b506100a4600480360361009f91908101906119b1565b6101b6565b6040516100b19190611ea4565b60405180910390f35b3480156100c657600080fd5b506100e160048036036100dc9190810190611a2c565b6103ea565b6040516100f2959493929190611f1e565b60405180910390f35b61010361052c565b6040516101109190611ee8565b60405180910390f35b34801561012557600080fd5b50610140600480360361013b91908101906119b1565b610999565b60405161014d9190611ec6565b60405180910390f35b610170600480360361016b9190810190611a7e565b610a30565b60405161017d9190611ee8565b60405180910390f35b6101a0600480360361019b9190810190611a2c565b611148565b6040516101ad9190611ee8565b60405180910390f35b6060600080600160008573ffffffffffffffffffffffffffffffffffffffff1673ffffffffffffffffffffffffffffffffffffffff1681526020019081526020016000208054905091508160405190808252806020026020018201604052801561023a57816020015b610227611636565b81526020019060019003908161021f5790505b509250600090505b818110156103e05760008082815260200190815260200160002060a0604051908101604052908160008201548152602001600182015481526020016002820180548060200260200160405190810160405280929190818152602001828054801561030157602002820191906000526020600020905b8160009054906101000a900473ffffffffffffffffffffffffffffffffffffffff1673ffffffffffffffffffffffffffffffffffffffff16815260200190600101908083116102b7575b505050505081526020016003820180548060200260200160405190810160405280929190818152602001828054801561035957602002820191906000526020600020905b815481526020019060010190808311610345575b505050505081526020016004820160009054906101000a900473ffffffffffffffffffffffffffffffffffffffff1673ffffffffffffffffffffffffffffffffffffffff1673ffffffffffffffffffffffffffffffffffffffff168152505083828151811015156103c657fe5b906020019060200201819052508080600101915050610242565b8292505050919050565b60008060608060008060008088815260200190815260200160002090508060000154816001015482600201836003018460040160009054906101000a900473ffffffffffffffffffffffffffffffffffffffff16828054806020026020016040519081016040528092919081815260200182805480156104bf57602002820191906000526020600020905b8160009054906101000a900473ffffffffffffffffffffffffffffffffffffffff1673ffffffffffffffffffffffffffffffffffffffff1681526020019060010190808311610475575b505050505092508180548060200260200160405190810160405280929190818152602001828054801561051157602002820191906000526020600020905b8154815260200190600101908083116104fd575b50505050509150955095509550955095505091939590929450565b600080600080600080600080600080600160003373ffffffffffffffffffffffffffffffffffffffff1673ffffffffffffffffffffffffffffffffffffffff1681526020019081526020016000209850600189805490500397505b60008810151561098957888881548110151561059f57fe5b9060005260206000200154965060008714156105ba5761097b565b6000808881526020019081526020016000209550600186600201805490500394505b60008510151561097a5785600201858154811015156105f757fe5b9060005260206000200160009054906101000a900473ffffffffffffffffffffffffffffffffffffffff169350856003018581548110151561063557fe5b906000526020600020015492503373ffffffffffffffffffffffffffffffffffffffff168473ffffffffffffffffffffffffffffffffffffffff1614801561067d5750428311155b1561096c576001866000015414156106f35785600101546002600082825403925050819055503373ffffffffffffffffffffffffffffffffffffffff166108fc87600101549081150290604051600060405180830381858888f193505050501580156106ed573d6000803e3d6000fd5b506108a1565b6014866000015414156107da578560040160009054906101000a900473ffffffffffffffffffffffffffffffffffffffff1691508173ffffffffffffffffffffffffffffffffffffffff1663a9059cbb3388600101546040518363ffffffff167c0100000000000000000000000000000000000000000000000000000000028152600401610782929190611e7b565b602060405180830381600087803b15801561079c57600080fd5b505af11580156107b0573d6000803e3d6000fd5b505050506040513d601f19601f820116820180604052506107d49190810190611a03565b506108a0565b6102d18660000154141561089f578560040160009054906101000a900473ffffffffffffffffffffffffffffffffffffffff1690508073ffffffffffffffffffffffffffffffffffffffff1663b88d4fde303389600101546040518463ffffffff167c010000000000000000000000000000000000000000000000000000000002815260040161086c93929190611e31565b600060405180830381600087803b15801561088657600080fd5b505af115801561089a573d6000803e3d6000fd5b505050505b5b5b600160003373ffffffffffffffffffffffffffffffffffffffff1673ffffffffffffffffffffffffffffffffffffffff168152602001908152602001600020888154811015156108ed57fe5b9060005260206000200160009055600080888152602001908152602001600020600080820160009055600182016000905560028201600061092e919061167c565b60038201600061093e919061169d565b6004820160006101000a81549073ffffffffffffffffffffffffffffffffffffffff0219169055505061097a565b8480600190039550506105dc565b5b878060019003985050610587565b6001995050505050505050505090565b6060600160008373ffffffffffffffffffffffffffffffffffffffff1673ffffffffffffffffffffffffffffffffffffffff168152602001908152602001600020805480602002602001604051908101604052809291908181526020018280548015610a2457602002820191906000526020600020905b815481526020019060010190808311610a10575b50505050509050919050565b600080610a3b6116be565b6000806000806000600160036000828254019250508190555060018d1480610a63575060148d145b80610a6f57506102d18d145b15610b1257600096505b8a51871015610b1157600160008c89815181101515610a9457fe5b9060200190602002015173ffffffffffffffffffffffffffffffffffffffff1673ffffffffffffffffffffffffffffffffffffffff16815260200190815260200160002060035490806001815401808255809150509060018203906000526020600020016000909192909190915055508680600101975050610a79565b5b60018d1415610c1e5760a0604051908101604052808e81526020013481526020018c81526020018b8152602001600073ffffffffffffffffffffffffffffffffffffffff16815250955085600080600354815260200190815260200160002060008201518160000155602082015181600101556040820151816002019080519060200190610ba1929190611704565b506060820151816003019080519060200190610bbe92919061178e565b5060808201518160040160006101000a81548173ffffffffffffffffffffffffffffffffffffffff021916908373ffffffffffffffffffffffffffffffffffffffff16021790555090505034600260008282540192505081905550611133565b60148d1415610e88578b94508473ffffffffffffffffffffffffffffffffffffffff1663dd62ed3e33306040518363ffffffff167c0100000000000000000000000000000000000000000000000000000000028152600401610c81929190611dd1565b602060405180830381600087803b158015610c9b57600080fd5b505af1158015610caf573d6000803e3d6000fd5b505050506040513d601f19601f82011682018060405250610cd39190810190611a55565b93508473ffffffffffffffffffffffffffffffffffffffff166323b872dd3330876040518463ffffffff167c0100000000000000000000000000000000000000000000000000000000028152600401610d2e93929190611dfa565b602060405180830381600087803b158015610d4857600080fd5b505af1158015610d5c573d6000803e3d6000fd5b505050506040513d601f19601f82011682018060405250610d809190810190611a03565b97508715610e7a5760a0604051908101604052808e81526020018581526020018c81526020018b81526020018d73ffffffffffffffffffffffffffffffffffffffff16815250955085600080600354815260200190815260200160002060008201518160000155602082015181600101556040820151816002019080519060200190610e0d929190611704565b506060820151816003019080519060200190610e2a92919061178e565b5060808201518160040160006101000a81548173ffffffffffffffffffffffffffffffffffffffff021916908373ffffffffffffffffffffffffffffffffffffffff160217905550905050610e83565b60009750611138565b611132565b6102d18d1415611131578b9250600091505b8851821015611130578882815181101515610eb157fe5b9060200190602002015190503373ffffffffffffffffffffffffffffffffffffffff168373ffffffffffffffffffffffffffffffffffffffff1663081812fc836040518263ffffffff167c0100000000000000000000000000000000000000000000000000000000028152600401610f299190611f03565b602060405180830381600087803b158015610f4357600080fd5b505af1158015610f57573d6000803e3d6000fd5b505050506040513d601f19601f82011682018060405250610f7b91908101906119da565b73ffffffffffffffffffffffffffffffffffffffff161415611112578273ffffffffffffffffffffffffffffffffffffffff1663b88d4fde3330846040518463ffffffff167c0100000000000000000000000000000000000000000000000000000000028152600401610ff093929190611e31565b600060405180830381600087803b15801561100a57600080fd5b505af115801561101e573d6000803e3d6000fd5b5050505060a0604051908101604052808e81526020018281526020018c81526020018b81526020018d73ffffffffffffffffffffffffffffffffffffffff1681525095508560008084600354018152602001908152602001600020600082015181600001556020820151816001015560408201518160020190805190602001906110a9929190611704565b5060608201518160030190805190602001906110c692919061178e565b5060808201518160040160006101000a81548173ffffffffffffffffffffffffffffffffffffffff021916908373ffffffffffffffffffffffffffffffffffffffff1602179055509050505b88516003600082825401925050819055508180600101925050610e9a565b5b5b5b600197505b5050505050505095945050505050565b6000806000806000806000806000808a81526020019081526020016000209650600095505b866002018054905086101561162557866002018681548110151561118d57fe5b9060005260206000200160009054906101000a900473ffffffffffffffffffffffffffffffffffffffff16945086600301868154811015156111cb57fe5b906000526020600020015493503373ffffffffffffffffffffffffffffffffffffffff168573ffffffffffffffffffffffffffffffffffffffff161480156112135750428411155b15611618576001876000015414156112895786600101546002600082825403925050819055503373ffffffffffffffffffffffffffffffffffffffff166108fc88600101549081150290604051600060405180830381858888f19350505050158015611283573d6000803e3d6000fd5b50611437565b601487600001541415611370578660040160009054906101000a900473ffffffffffffffffffffffffffffffffffffffff1692508273ffffffffffffffffffffffffffffffffffffffff1663a9059cbb3389600101546040518363ffffffff167c0100000000000000000000000000000000000000000000000000000000028152600401611318929190611e7b565b602060405180830381600087803b15801561133257600080fd5b505af1158015611346573d6000803e3d6000fd5b505050506040513d601f19601f8201168201806040525061136a9190810190611a03565b50611436565b6102d187600001541415611435578660040160009054906101000a900473ffffffffffffffffffffffffffffffffffffffff1691508173ffffffffffffffffffffffffffffffffffffffff1663b88d4fde30338a600101546040518463ffffffff167c010000000000000000000000000000000000000000000000000000000002815260040161140293929190611e31565b600060405180830381600087803b15801561141c57600080fd5b505af1158015611430573d6000803e3d6000fd5b505050505b5b5b6000808a8152602001908152602001600020600080820160009055600182016000905560028201600061146a919061167c565b60038201600061147a919061169d565b6004820160006101000a81549073ffffffffffffffffffffffffffffffffffffffff02191690555050600160003373ffffffffffffffffffffffffffffffffffffffff1673ffffffffffffffffffffffffffffffffffffffff168152602001908152602001600020818154811015156114ef57fe5b9060005260206000205050600090505b600160003373ffffffffffffffffffffffffffffffffffffffff1673ffffffffffffffffffffffffffffffffffffffff168152602001908152602001600020805490508110156116175788600160003373ffffffffffffffffffffffffffffffffffffffff1673ffffffffffffffffffffffffffffffffffffffff1681526020019081526020016000208281548110151561159657fe5b9060005260206000200154141561160a57600160003373ffffffffffffffffffffffffffffffffffffffff1673ffffffffffffffffffffffffffffffffffffffff168152602001908152602001600020818154811015156115f357fe5b90600052602060002001600090556001975061162a565b80806001019150506114ff565b5b858060010196505061116d565b600097505b50505050505050919050565b60a06040519081016040528060008152602001600081526020016060815260200160608152602001600073ffffffffffffffffffffffffffffffffffffffff1681525090565b508054600082559060005260206000209081019061169a91906117db565b50565b50805460008255906000526020600020908101906116bb91906117db565b50565b60a06040519081016040528060008152602001600081526020016060815260200160608152602001600073ffffffffffffffffffffffffffffffffffffffff1681525090565b82805482825590600052602060002090810192821561177d579160200282015b8281111561177c5782518260006101000a81548173ffffffffffffffffffffffffffffffffffffffff021916908373ffffffffffffffffffffffffffffffffffffffff16021790555091602001919060010190611724565b5b50905061178a9190611800565b5090565b8280548282559060005260206000209081019282156117ca579160200282015b828111156117c95782518255916020019190600101906117ae565b5b5090506117d791906117db565b5090565b6117fd91905b808211156117f95760008160009055506001016117e1565b5090565b90565b61184091905b8082111561183c57600081816101000a81549073ffffffffffffffffffffffffffffffffffffffff021916905550600101611806565b5090565b90565b600061184f82356120eb565b905092915050565b600061186382516120eb565b905092915050565b600082601f830112151561187e57600080fd5b813561189161188c82611fac565b611f7f565b915081818352602084019350602081019050838560208402820111156118b657600080fd5b60005b838110156118e657816118cc8882611843565b8452602084019350602083019250506001810190506118b9565b5050505092915050565b600082601f830112151561190357600080fd5b813561191661191182611fd4565b611f7f565b9150818183526020840193506020810190508385602084028201111561193b57600080fd5b60005b8381101561196b57816119518882611989565b84526020840193506020830192505060018101905061193e565b5050505092915050565b6000611981825161210b565b905092915050565b60006119958235612117565b905092915050565b60006119a98251612117565b905092915050565b6000602082840312156119c357600080fd5b60006119d184828501611843565b91505092915050565b6000602082840312156119ec57600080fd5b60006119fa84828501611857565b91505092915050565b600060208284031215611a1557600080fd5b6000611a2384828501611975565b91505092915050565b600060208284031215611a3e57600080fd5b6000611a4c84828501611989565b91505092915050565b600060208284031215611a6757600080fd5b6000611a758482850161199d565b91505092915050565b600080600080600060a08688031215611a9657600080fd5b6000611aa488828901611989565b9550506020611ab588828901611843565b945050604086013567ffffffffffffffff811115611ad257600080fd5b611ade8882890161186b565b935050606086013567ffffffffffffffff811115611afb57600080fd5b611b07888289016118f0565b925050608086013567ffffffffffffffff811115611b2457600080fd5b611b30888289016118f0565b9150509295509295909350565b611b46816120b5565b82525050565b6000611b5782612048565b808452602084019350611b6983612009565b60005b82811015611b9b57611b7f868351611b3d565b611b8882612081565b9150602086019550600181019050611b6c565b50849250505092915050565b6000611bb28261203d565b808452602084019350611bc483611ffc565b60005b82811015611bf657611bda868351611b3d565b611be382612074565b9150602086019550600181019050611bc7565b50849250505092915050565b6000611c0d82612053565b80845260208401935083602082028501611c2685612016565b60005b84811015611c5f578383038852611c41838351611d45565b9250611c4c8261208e565b9150602088019750600181019050611c29565b508196508694505050505092915050565b6000611c7b82612069565b808452602084019350611c8d83612030565b60005b82811015611cbf57611ca3868351611dc2565b611cac826120a8565b9150602086019550600181019050611c90565b50849250505092915050565b6000611cd68261205e565b808452602084019350611ce883612023565b60005b82811015611d1a57611cfe868351611dc2565b611d078261209b565b9150602086019550600181019050611ceb565b50849250505092915050565b611d2f816120d5565b82525050565b6000808252602082019050919050565b600060a083016000830151611d5d6000860182611dc2565b506020830151611d706020860182611dc2565b5060408301518482036040860152611d888282611ba7565b91505060608301518482036060860152611da28282611ccb565b9150506080830151611db76080860182611b3d565b508091505092915050565b611dcb816120e1565b82525050565b6000604082019050611de66000830185611b3d565b611df36020830184611b3d565b9392505050565b6000606082019050611e0f6000830186611b3d565b611e1c6020830185611b3d565b611e296040830184611dc2565b949350505050565b6000608082019050611e466000830186611b3d565b611e536020830185611b3d565b611e606040830184611dc2565b8181036060830152611e7181611d35565b9050949350505050565b6000604082019050611e906000830185611b3d565b611e9d6020830184611dc2565b9392505050565b60006020820190508181036000830152611ebe8184611c02565b905092915050565b60006020820190508181036000830152611ee08184611c70565b905092915050565b6000602082019050611efd6000830184611d26565b92915050565b6000602082019050611f186000830184611dc2565b92915050565b600060a082019050611f336000830188611dc2565b611f406020830187611dc2565b8181036040830152611f528186611b4c565b90508181036060830152611f668185611c70565b9050611f756080830184611b3d565b9695505050505050565b6000604051905081810181811067ffffffffffffffff82111715611fa257600080fd5b8060405250919050565b600067ffffffffffffffff821115611fc357600080fd5b602082029050602081019050919050565b600067ffffffffffffffff821115611feb57600080fd5b602082029050602081019050919050565b6000602082019050919050565b6000602082019050919050565b6000602082019050919050565b6000602082019050919050565b6000602082019050919050565b600081519050919050565b600081519050919050565b600081519050919050565b600081519050919050565b600081519050919050565b6000602082019050919050565b6000602082019050919050565b6000602082019050919050565b6000602082019050919050565b6000602082019050919050565b600073ffffffffffffffffffffffffffffffffffffffff82169050919050565b60008115159050919050565b6000819050919050565b600073ffffffffffffffffffffffffffffffffffffffff82169050919050565b60008115159050919050565b60008190509190505600a265627a7a723058202e8fff635398e136199abc7d301b29c5951b52d5cb489579345c29345cb745596c6578706572696d656e74616cf50037",
  "source": "pragma experimental ABIEncoderV2; // Adds ability to pass structs as function arguments.\n\ncontract BequeathContract {\n struct Bequeathal {\n     uint tokenType; // 1 is ether, 20 is erc-20, and 721 is erc-721\n     uint amount; //number of ether, erc20, or erc721 token id\n     address[] beneficiaries;\n     uint[] dates;\n     address contractAddress;\n }\n\n /* mapping (address => address) private BeneficiaryToDonor; */\n mapping (uint => Bequeathal) internal IdToBequeathal;\n mapping (address => uint[]) internal BeneficiaryToIds;\n uint256 balance;\n uint256 current_id;\n constructor() public{\n   balance = 0;\n   current_id = 0;\n }\n\n function viewBequeathal(uint id) public view returns (uint, uint, address[], uint[], address){\n   Bequeathal storage b = IdToBequeathal[id];\n   return (b.tokenType, b.amount, b.beneficiaries, b.dates, b.contractAddress);\n }\n\n function viewMyIds(address beneficiary) public view returns (uint[] ids){\n   return BeneficiaryToIds[beneficiary];\n }\n\n function viewMyBequeathals(address beneficiary) public view returns (Bequeathal[] bequeathals){\n   uint len = BeneficiaryToIds[beneficiary].length;\n   bequeathals = new Bequeathal[](len);\n   for (uint i = 0; i < len; i++){\n     bequeathals[i] = IdToBequeathal[i];\n   }\n   return bequeathals;\n }\n\n function bequeath(uint _type, address _contractAddress, address[] _beneficiaries, uint[] _dates, uint256[] _tokenIds) public payable returns (bool success){\n    current_id += 1;\n    if (_type == 1 || _type == 20 || _type == 721){\n      for (uint j = 0; j < _beneficiaries.length; j++) {\n        BeneficiaryToIds[_beneficiaries[j]].push(current_id);\n      }\n    }\n    Bequeathal memory newBequeathal;\n    if (_type == 1) {\n      newBequeathal = Bequeathal(_type, msg.value, _beneficiaries, _dates, 0x0);\n      IdToBequeathal[current_id] = newBequeathal;\n      balance += msg.value;\n    } else if (_type == 20) {\n      //assume approved\n       ERC20Token erc20TokenContract = ERC20Token(_contractAddress);\n       uint amount = erc20TokenContract.allowance(msg.sender, address(this));\n       success = erc20TokenContract.transferFrom(msg.sender, address(this), amount);\n       if (success) {\n        newBequeathal = Bequeathal(_type, amount, _beneficiaries, _dates, _contractAddress);\n         IdToBequeathal[current_id]=newBequeathal;\n       } else {\n         return false;\n       }\n    } else if (_type == 721) {\n       ERC721Token erc721TokenContract = ERC721Token(_contractAddress);\n       for (uint i = 0; i < _tokenIds.length; i++) {\n          uint256 id = _tokenIds[i];\n          if (erc721TokenContract.getApproved(id)==msg.sender) {\n            erc721TokenContract.safeTransferFrom(msg.sender, address(this), id, \"\");\n            newBequeathal = Bequeathal(_type, id, _beneficiaries, _dates, _contractAddress);\n            IdToBequeathal[current_id+i]=newBequeathal;\n          }\n          current_id += _tokenIds.length;\n       }\n    }\n    return true;\n }\n\n function claimId(uint id) public payable returns (bool success){\n   Bequeathal storage asset = IdToBequeathal[id];\n   for (uint b = 0; b < asset.beneficiaries.length; b++){\n     address beneficiary = asset.beneficiaries[b];\n     uint date = asset.dates[b];\n     if (beneficiary == msg.sender && date <= block.timestamp){\n       if (asset.tokenType == 1){\n         balance -= asset.amount;\n         msg.sender.transfer(asset.amount);\n       }else if (asset.tokenType == 20){\n         ERC20Token erc20 = ERC20Token(asset.contractAddress);\n         erc20.transfer(msg.sender, asset.amount);\n       }else if (asset.tokenType == 721){\n         ERC721Token erc721 = ERC721Token(asset.contractAddress);\n         erc721.safeTransferFrom(address(this), msg.sender, asset.amount, \"\");\n       }\n       delete IdToBequeathal[id];\n       BeneficiaryToIds[msg.sender][i];\n       for (uint i = 0; i < BeneficiaryToIds[msg.sender].length; i++){\n         if (BeneficiaryToIds[msg.sender][i] == id) {\n           delete BeneficiaryToIds[msg.sender][i];\n           return true;\n         }\n       }\n     }\n   }\n   return false;\n }\n\n function claim() public payable returns (bool success){\n     uint[] storage ids = BeneficiaryToIds[msg.sender];\n     for (uint i = ids.length - 1; i >= 0; i--){\n       uint id = ids[i];\n       if (id == 0) continue;\n       Bequeathal storage asset = IdToBequeathal[id];\n       for (uint b = asset.beneficiaries.length - 1; b >= 0; b--){\n         address beneficiary = asset.beneficiaries[b];\n         uint date = asset.dates[b];\n         if (beneficiary == msg.sender && date <= block.timestamp){\n           if (asset.tokenType == 1){\n             balance -= asset.amount;\n             msg.sender.transfer(asset.amount);\n           }else if (asset.tokenType == 20){\n             ERC20Token erc20 = ERC20Token(asset.contractAddress);\n             erc20.transfer(msg.sender, asset.amount);\n           }else if (asset.tokenType == 721){\n             ERC721Token erc721 = ERC721Token(asset.contractAddress);\n             erc721.safeTransferFrom(address(this), msg.sender, asset.amount, \"\");\n           }\n           delete BeneficiaryToIds[msg.sender][i];\n           delete IdToBequeathal[id];\n           break;\n         }\n       }\n     }\n     return true;\n }\n}\n\n\ncontract ERC20Token {\n    function totalSupply() public constant returns (uint);\n    function balanceOf(address tokenOwner) public constant returns (uint balance);\n    function allowance(address tokenOwner, address spender) public constant returns (uint remaining);\n    function transfer(address to, uint tokens) public returns (bool success);\n    function approve(address spender, uint tokens) public returns (bool success);\n    function transferFrom(address from, address to, uint tokens) public returns (bool success);\n\n    event Transfer(address indexed from, address indexed to, uint tokens);\n    event Approval(address indexed tokenOwner, address indexed spender, uint tokens);\n}\n\ncontract ERC721Token {\n    /// @dev This emits when ownership of any NFT changes by any mechanism.\n    ///  This event emits when NFTs are created (`from` == 0) and destroyed\n    ///  (`to` == 0). Exception: during contract creation, any number of NFTs\n    ///  may be created and assigned without emitting Transfer. At the time of\n    ///  any transfer, the approved address for that NFT (if any) is reset to none.\n    event Transfer(address indexed _from, address indexed _to, uint256 _tokenId);\n\n    /// @dev This emits when the approved address for an NFT is changed or\n    ///  reaffirmed. The zero address indicates there is no approved address.\n    ///  When a Transfer event emits, this also indicates that the approved\n    ///  address for that NFT (if any) is reset to none.\n    event Approval(address indexed _owner, address indexed _approved, uint256 _tokenId);\n\n    /// @dev This emits when an operator is enabled or disabled for an owner.\n    ///  The operator can manage all NFTs of the owner.\n    event ApprovalForAll(address indexed _owner, address indexed _operator, bool _approved);\n\n    /// @notice Count all NFTs assigned to an owner\n    /// @dev NFTs assigned to the zero address are considered invalid, and this\n    ///  function throws for queries about the zero address.\n    /// @param _owner An address for whom to query the balance\n    /// @return The number of NFTs owned by `_owner`, possibly zero\n    function balanceOf(address _owner) external view returns (uint256);\n\n    /// @notice Find the owner of an NFT\n    /// @param _tokenId The identifier for an NFT\n    /// @dev NFTs assigned to zero address are considered invalid, and queries\n    ///  about them do throw.\n    /// @return The address of the owner of the NFT\n    function ownerOf(uint256 _tokenId) external view returns (address);\n\n    /// @notice Transfers the ownership of an NFT from one address to another address\n    /// @dev Throws unless `msg.sender` is the current owner, an authorized\n    ///  operator, or the approved address for this NFT. Throws if `_from` is\n    ///  not the current owner. Throws if `_to` is the zero address. Throws if\n    ///  `_tokenId` is not a valid NFT. When transfer is complete, this function\n    ///  checks if `_to` is a smart contract (code size > 0). If so, it calls\n    ///  `onERC721Received` on `_to` and throws if the return value is not\n    ///  `bytes4(keccak256(\"onERC721Received(address,uint256,bytes)\"))`.\n    /// @param _from The current owner of the NFT\n    /// @param _to The new owner\n    /// @param _tokenId The NFT to transfer\n    /// @param data Additional data with no specified format, sent in call to `_to`\n    function safeTransferFrom(address _from, address _to, uint256 _tokenId, bytes data) external payable;\n\n    /// @notice Transfers the ownership of an NFT from one address to another address\n    /// @dev This works identically to the other function with an extra data parameter,\n    ///  except this function just sets data to \"\"\n    /// @param _from The current owner of the NFT\n    /// @param _to The new owner\n    /// @param _tokenId The NFT to transfer\n    function safeTransferFrom(address _from, address _to, uint256 _tokenId) external payable;\n\n    /// @notice Transfer ownership of an NFT -- THE CALLER IS RESPONSIBLE\n    ///  TO CONFIRM THAT `_to` IS CAPABLE OF RECEIVING NFTS OR ELSE\n    ///  THEY MAY BE PERMANENTLY LOST\n    /// @dev Throws unless `msg.sender` is the current owner, an authorized\n    ///  operator, or the approved address for this NFT. Throws if `_from` is\n    ///  not the current owner. Throws if `_to` is the zero address. Throws if\n    ///  `_tokenId` is not a valid NFT.\n    /// @param _from The current owner of the NFT\n    /// @param _to The new owner\n    /// @param _tokenId The NFT to transfer\n    function transferFrom(address _from, address _to, uint256 _tokenId) external payable;\n\n    /// @notice Set or reaffirm the approved address for an NFT\n    /// @dev The zero address indicates there is no approved address.\n    /// @dev Throws unless `msg.sender` is the current NFT owner, or an authorized\n    ///  operator of the current owner.\n    /// @param _approved The new approved NFT controller\n    /// @param _tokenId The NFT to approve\n    function approve(address _approved, uint256 _tokenId) external payable;\n\n    /// @notice Enable or disable approval for a third party (\"operator\") to manage\n    ///  all of `msg.sender`'s assets.\n    /// @dev Emits the ApprovalForAll event\n    /// @param _operator Address to add to the set of authorized operators.\n    /// @param _approved True if the operators is approved, false to revoke approval\n    function setApprovalForAll(address _operator, bool _approved) external;\n\n    /// @notice Get the approved address for a single NFT\n    /// @dev Throws if `_tokenId` is not a valid NFT\n    /// @param _tokenId The NFT to find the approved address for\n    /// @return The approved address for this NFT, or the zero address if there is none\n    function getApproved(uint256 _tokenId) external view returns (address);\n\n    /// @notice Query if an address is an authorized operator for another address\n    /// @param _owner The address that owns the NFTs\n    /// @param _operator The address that acts on behalf of the owner\n    /// @return True if `_operator` is an approved operator for `_owner`, false otherwise\n    function isApprovedForAll(address _owner, address _operator) external view returns (bool);\n\n    /// @notice Query if a contract implements an interface\n    /// @param interfaceID The interface identifier, as specified in ERC-165\n    /// @dev Interface identification is specified in ERC-165. This function\n    ///  uses less than 30,000 gas.\n    /// @return `true` if the contract implements `interfaceID` and\n    ///  `interfaceID` is not 0xffffffff, `false` otherwise\n    function supportsInterface(bytes4 interfaceID) external view returns (bool);\n}\n",
  "sourcePath": "/Users/achon/Google Drive/Junior '17-'18/CS 359B/cs359b-bequeath/contracts/BequeathContract.sol",
  "compiler": {
    "name": "solc",
    "version": "0.4.24+commit.e67f0147.Emscripten.clang"
  },
  "schemaVersion": "2.0.0",
  "updatedAt": "2018-06-06T16:35:25.416Z"
}